{
  "contractName": "AssetContract",
  "abi": [
    {
      "constant": true,
      "inputs": [],
      "name": "soldCount",
      "outputs": [
        {
          "name": "",
          "type": "uint256"
        }
      ],
      "payable": false,
      "stateMutability": "view",
      "type": "function"
    },
    {
      "constant": true,
      "inputs": [
        {
          "name": "",
          "type": "uint256"
        }
      ],
      "name": "authors",
      "outputs": [
        {
          "name": "",
          "type": "address"
        }
      ],
      "payable": false,
      "stateMutability": "view",
      "type": "function"
    },
    {
      "constant": true,
      "inputs": [],
      "name": "assetId",
      "outputs": [
        {
          "name": "",
          "type": "string"
        }
      ],
      "payable": false,
      "stateMutability": "view",
      "type": "function"
    },
    {
      "constant": true,
      "inputs": [],
      "name": "owner",
      "outputs": [
        {
          "name": "",
          "type": "address"
        }
      ],
      "payable": false,
      "stateMutability": "view",
      "type": "function"
    },
    {
      "constant": true,
      "inputs": [
        {
          "name": "",
          "type": "address"
        }
      ],
      "name": "buyers",
      "outputs": [
        {
          "name": "",
          "type": "bool"
        }
      ],
      "payable": false,
      "stateMutability": "view",
      "type": "function"
    },
    {
      "constant": true,
      "inputs": [],
      "name": "price",
      "outputs": [
        {
          "name": "",
          "type": "uint256"
        }
      ],
      "payable": false,
      "stateMutability": "view",
      "type": "function"
    },
    {
      "constant": true,
      "inputs": [
        {
          "name": "_str",
          "type": "string"
        }
      ],
      "name": "nonEmpty",
      "outputs": [
        {
          "name": "",
          "type": "bool"
        }
      ],
      "payable": false,
      "stateMutability": "pure",
      "type": "function"
    },
    {
      "constant": true,
      "inputs": [
        {
          "name": "",
          "type": "address"
        }
      ],
      "name": "revenueRates",
      "outputs": [
        {
          "name": "revenueRate",
          "type": "uint256"
        },
        {
          "name": "isAuthor",
          "type": "bool"
        }
      ],
      "payable": false,
      "stateMutability": "view",
      "type": "function"
    },
    {
      "constant": false,
      "inputs": [
        {
          "name": "newOwner",
          "type": "address"
        }
      ],
      "name": "transferOwnership",
      "outputs": [],
      "payable": false,
      "stateMutability": "nonpayable",
      "type": "function"
    },
    {
      "inputs": [
        {
          "name": "_assetId",
          "type": "string"
        },
        {
          "name": "_price",
          "type": "uint256"
        },
        {
          "name": "_authors",
          "type": "address[]"
        }
      ],
      "payable": false,
      "stateMutability": "nonpayable",
      "type": "constructor"
    },
    {
      "payable": true,
      "stateMutability": "payable",
      "type": "fallback"
    },
    {
      "anonymous": false,
      "inputs": [
        {
          "indexed": true,
          "name": "_sender",
          "type": "address"
        },
        {
          "indexed": false,
          "name": "_value",
          "type": "uint256"
        }
      ],
      "name": "PaymentEvent",
      "type": "event"
    },
    {
      "anonymous": false,
      "inputs": [
        {
          "indexed": true,
          "name": "_author",
          "type": "address"
        },
        {
          "indexed": false,
          "name": "_rate",
          "type": "uint256"
        }
      ],
      "name": "RevenueRateChangedEvent",
      "type": "event"
    },
    {
      "anonymous": false,
      "inputs": [
        {
          "indexed": false,
          "name": "_oldPrice",
          "type": "uint256"
        },
        {
          "indexed": false,
          "name": "_newPrice",
          "type": "uint256"
        }
      ],
      "name": "PriceChangedEvent",
      "type": "event"
    },
    {
      "anonymous": false,
      "inputs": [
        {
          "indexed": true,
          "name": "previousOwner",
          "type": "address"
        },
        {
          "indexed": true,
          "name": "newOwner",
          "type": "address"
        }
      ],
      "name": "OwnershipTransferred",
      "type": "event"
    },
    {
      "constant": false,
      "inputs": [
        {
          "name": "_author",
          "type": "address"
        },
        {
          "name": "_rate",
          "type": "uint256"
        }
      ],
      "name": "setRevenueRate",
      "outputs": [],
      "payable": false,
      "stateMutability": "nonpayable",
      "type": "function"
    },
    {
      "constant": true,
      "inputs": [
        {
          "name": "_rate",
          "type": "uint256"
        }
      ],
      "name": "checkRevenueRate",
      "outputs": [
        {
          "name": "",
          "type": "bool"
        }
      ],
      "payable": false,
      "stateMutability": "view",
      "type": "function"
    },
    {
      "constant": false,
      "inputs": [
        {
          "name": "_price",
          "type": "uint256"
        }
      ],
      "name": "changePrice",
      "outputs": [],
      "payable": false,
      "stateMutability": "nonpayable",
      "type": "function"
    },
    {
      "constant": true,
      "inputs": [
        {
          "name": "_value",
          "type": "uint256"
        },
        {
          "name": "_rate",
          "type": "uint256"
        }
      ],
      "name": "calculateRevenue",
      "outputs": [
        {
          "name": "revenue",
          "type": "uint256"
        }
      ],
      "payable": false,
      "stateMutability": "pure",
      "type": "function"
    },
    {
      "constant": true,
      "inputs": [],
      "name": "getAuthors",
      "outputs": [
        {
          "name": "",
          "type": "address[]"
        }
      ],
      "payable": false,
      "stateMutability": "view",
      "type": "function"
    }
  ],
  "bytecode": "0x606060405234156200001057600080fd5b6040516200120938038062001209833981016040528080518201919060200180519060200190919080518201919050506000336000806101000a81548173ffffffffffffffffffffffffffffffffffffffff021916908373ffffffffffffffffffffffffffffffffffffffff160217905550620000a184620001c36401000000000262000ac7176401000000009004565b1515620000ad57600080fd5b60008251111515620000be57600080fd5b8360019080519060200190620000d6929190620001d1565b508160049080519060200190620000ef92919062000258565b50826002819055506000600381905550600090505b8151811015620001b957604080519081016040528060008152602001600115158152506005600084848151811015156200013a57fe5b9060200190602002015173ffffffffffffffffffffffffffffffffffffffff1673ffffffffffffffffffffffffffffffffffffffff1681526020019081526020016000206000820151816000015560208201518160010160006101000a81548160ff021916908315150217905550905050808060010191505062000104565b5050505062000355565b600080825114159050919050565b828054600181600116156101000203166002900490600052602060002090601f016020900481019282601f106200021457805160ff191683800117855562000245565b8280016001018555821562000245579182015b828111156200024457825182559160200191906001019062000227565b5b509050620002549190620002e7565b5090565b828054828255906000526020600020908101928215620002d4579160200282015b82811115620002d35782518260006101000a81548173ffffffffffffffffffffffffffffffffffffffff021916908373ffffffffffffffffffffffffffffffffffffffff1602179055509160200191906001019062000279565b5b509050620002e391906200030f565b5090565b6200030c91905b8082111562000308576000816000905550600101620002ee565b5090565b90565b6200035291905b808211156200034e57600081816101000a81549073ffffffffffffffffffffffffffffffffffffffff02191690555060010162000316565b5090565b90565b610ea480620003656000396000f3006060604052600436106100d0576000357c0100000000000000000000000000000000000000000000000000000000900463ffffffff16806339f9c82c146102ab5780633db804da146102d457806344de240a1461033757806375f96cf5146103c55780637fc622f4146104055780638da5cb5b1461046f57806397a993aa146104c4578063a035b1fe14610515578063a2b40d191461053e578063aba20eae14610561578063afabd49d1461059c578063bd18332314610611578063f2fde38b14610669578063f3e92f60146106a2575b60008060008060025434101515156100e757600080fd5b620f42406100f36106e4565b1415156100ff57600080fd5b600093505b6004805490508410156101ec5760048481548110151561012057fe5b906000526020600020900160009054906101000a900473ffffffffffffffffffffffffffffffffffffffff169250600560008473ffffffffffffffffffffffffffffffffffffffff1673ffffffffffffffffffffffffffffffffffffffff168152602001908152602001600020915061019d3483600001546107a1565b90508273ffffffffffffffffffffffffffffffffffffffff166108fc829081150290604051600060405180830381858888f1935050505015156101df57600080fd5b8380600101945050610104565b6101f960035460016107f4565b6003819055506001600660003373ffffffffffffffffffffffffffffffffffffffff1673ffffffffffffffffffffffffffffffffffffffff16815260200190815260200160002060006101000a81548160ff0219169083151502179055503373ffffffffffffffffffffffffffffffffffffffff167ff7130aabb9c9cca18a579bcff1de84054de1ca07680f60eae1510bae7788f819346040518082815260200191505060405180910390a250505050005b34156102b657600080fd5b6102be610812565b6040518082815260200191505060405180910390f35b34156102df57600080fd5b6102f56004808035906020019091905050610818565b604051808273ffffffffffffffffffffffffffffffffffffffff1673ffffffffffffffffffffffffffffffffffffffff16815260200191505060405180910390f35b341561034257600080fd5b61034a610857565b6040518080602001828103825283818151815260200191508051906020019080838360005b8381101561038a57808201518184015260208101905061036f565b50505050905090810190601f1680156103b75780820380516001836020036101000a031916815260200191505b509250505060405180910390f35b34156103d057600080fd5b6103ef60048080359060200190919080359060200190919050506107a1565b6040518082815260200191505060405180910390f35b341561041057600080fd5b6104186108f5565b6040518080602001828103825283818151815260200191508051906020019060200280838360005b8381101561045b578082015181840152602081019050610440565b505050509050019250505060405180910390f35b341561047a57600080fd5b610482610989565b604051808273ffffffffffffffffffffffffffffffffffffffff1673ffffffffffffffffffffffffffffffffffffffff16815260200191505060405180910390f35b34156104cf57600080fd5b6104fb600480803573ffffffffffffffffffffffffffffffffffffffff169060200190919050506109ae565b604051808215151515815260200191505060405180910390f35b341561052057600080fd5b6105286109ce565b6040518082815260200191505060405180910390f35b341561054957600080fd5b61055f60048080359060200190919050506109d4565b005b341561056c57600080fd5b6105826004808035906020019091905050610a82565b604051808215151515815260200191505060405180910390f35b34156105a757600080fd5b6105f7600480803590602001908201803590602001908080601f01602080910402602001604051908101604052809392919081815260200183838082843782019150505050505091905050610ac7565b604051808215151515815260200191505060405180910390f35b341561061c57600080fd5b610648600480803573ffffffffffffffffffffffffffffffffffffffff16906020019091905050610ad5565b60405180838152602001821515151581526020019250505060405180910390f35b341561067457600080fd5b6106a0600480803573ffffffffffffffffffffffffffffffffffffffff16906020019091905050610b06565b005b34156106ad57600080fd5b6106e2600480803573ffffffffffffffffffffffffffffffffffffffff16906020019091908035906020019091905050610c5b565b005b60008060008060009250600091505b600480549050821015610798576005600060048481548110151561071357fe5b906000526020600020900160009054906101000a900473ffffffffffffffffffffffffffffffffffffffff1673ffffffffffffffffffffffffffffffffffffffff1673ffffffffffffffffffffffffffffffffffffffff16815260200190815260200160002090506107898382600001546107f4565b925081806001019250506106f3565b82935050505090565b6000620186a08210806107c65750620186a082101580156107c55750620f42408211155b5b156107ea57620f42406107d98484610e31565b8115156107e257fe5b0490506107ee565b8290505b92915050565b600080828401905083811015151561080857fe5b8091505092915050565b60035481565b60048181548110151561082757fe5b90600052602060002090016000915054906101000a900473ffffffffffffffffffffffffffffffffffffffff1681565b60018054600181600116156101000203166002900480601f0160208091040260200160405190810160405280929190818152602001828054600181600116156101000203166002900480156108ed5780601f106108c2576101008083540402835291602001916108ed565b820191906000526020600020905b8154815290600101906020018083116108d057829003601f168201915b505050505081565b6108fd610e64565b600480548060200260200160405190810160405280929190818152602001828054801561097f57602002820191906000526020600020905b8160009054906101000a900473ffffffffffffffffffffffffffffffffffffffff1673ffffffffffffffffffffffffffffffffffffffff1681526020019060010190808311610935575b5050505050905090565b6000809054906101000a900473ffffffffffffffffffffffffffffffffffffffff1681565b60066020528060005260406000206000915054906101000a900460ff1681565b60025481565b60008060009054906101000a900473ffffffffffffffffffffffffffffffffffffffff1673ffffffffffffffffffffffffffffffffffffffff163373ffffffffffffffffffffffffffffffffffffffff16141515610a3157600080fd5b6002549050816002819055507f92ceb96513e6ff880013131bf68a11fa2ada07941a6b36db443ccb29b2675c6681600254604051808381526020018281526020019250505060405180910390a15050565b6000806127108310158015610a9a5750620f42408311155b1515610aa557600080fd5b610aad6106e4565b9050620f4240610abd82856107f4565b1115915050919050565b600080825114159050919050565b60056020528060005260406000206000915090508060000154908060010160009054906101000a900460ff16905082565b6000809054906101000a900473ffffffffffffffffffffffffffffffffffffffff1673ffffffffffffffffffffffffffffffffffffffff163373ffffffffffffffffffffffffffffffffffffffff16141515610b6157600080fd5b600073ffffffffffffffffffffffffffffffffffffffff168173ffffffffffffffffffffffffffffffffffffffff1614151515610b9d57600080fd5b8073ffffffffffffffffffffffffffffffffffffffff166000809054906101000a900473ffffffffffffffffffffffffffffffffffffffff1673ffffffffffffffffffffffffffffffffffffffff167f8be0079c531659141344cd1fd0a4f28419497f9722a3daafe3b4186f6b6457e060405160405180910390a3806000806101000a81548173ffffffffffffffffffffffffffffffffffffffff021916908373ffffffffffffffffffffffffffffffffffffffff16021790555050565b813073ffffffffffffffffffffffffffffffffffffffff168173ffffffffffffffffffffffffffffffffffffffff1614151515610c9757600080fd5b8260008173ffffffffffffffffffffffffffffffffffffffff1614151515610cbe57600080fd5b82600081111515610cce57600080fd5b6000809054906101000a900473ffffffffffffffffffffffffffffffffffffffff1673ffffffffffffffffffffffffffffffffffffffff163373ffffffffffffffffffffffffffffffffffffffff16141515610d2957600080fd5b600560008673ffffffffffffffffffffffffffffffffffffffff1673ffffffffffffffffffffffffffffffffffffffff16815260200190815260200160002060010160009054906101000a900460ff161515610d8157fe5b610d8a84610a82565b1515610d9557600080fd5b83600560008773ffffffffffffffffffffffffffffffffffffffff1673ffffffffffffffffffffffffffffffffffffffff168152602001908152602001600020600001819055508473ffffffffffffffffffffffffffffffffffffffff167f9c0dadb72508ad4969779d5c10da273b18c6f3a16f71c5744aaf860c56a925d9856040518082815260200191505060405180910390a25050505050565b60008082840290506000841480610e525750828482811515610e4f57fe5b04145b1515610e5a57fe5b8091505092915050565b6020604051908101604052806000815250905600a165627a7a72305820c4f0ca8513c05d7fbcb4f0d4f69170fc29c0aff44739bec418c5cfc94079db890029",
  "source": "pragma solidity ^0.4.11;\n\nimport \"./util/Util.sol\";\nimport \"./util/Ownable.sol\";\n\ncontract AssetContract is Util, Ownable {\n\n\tuint256 private constant MIN_REVENUE_RATE   = 10000;   // 1%\n\tuint256 private constant TEN_PERCENT_IN_PPM = 100000;  // 10%\n\tuint256 private constant MAX_REVENUE_RATE   = 1000000; // 100%\n\n\tstring public assetId;\t\n\tuint256 public price;\n\tuint256 public soldCount;\n\taddress[] public authors;\n\tmapping(address => Revenue) public revenueRates;\n\tmapping(address => bool) public buyers;\n\n\tevent PaymentEvent(address indexed _sender, uint256 _value);\n\tevent RevenueRateChangedEvent(address indexed _author, uint256 _rate);\n\tevent PriceChangedEvent(uint256 _oldPrice, uint256 _newPrice);\n\n\tstruct Revenue {\n\t\tuint256 revenueRate;\n\t\tbool isAuthor;\n\t}\n\n\tfunction AssetContract(string _assetId, uint256 _price, address[] _authors) public {\n\t\trequire(nonEmpty(_assetId));\n\t\trequire(_authors.length > 0);\n\n\t\tassetId = _assetId;\n\t\tauthors = _authors;\n\t\tprice = _price;\n\t\tsoldCount = 0;\n\n\t\tfor (uint256 i = 0; i < _authors.length; i++) {\n\t\t\trevenueRates[_authors[i]] = Revenue(0, true);\n\t\t}\n\t}\n\n\tfunction () public payable {\n\t\trequire(msg.value >= price);\n\t\trequire(getSummaryRate() == MAX_REVENUE_RATE);\n\n\t\tfor (uint256 i = 0; i < authors.length; i++) {\n\t\t\taddress authorAddress = authors[i];\n\t\t\tRevenue storage revenueMeta = revenueRates[authorAddress];\n\t\t\tuint256 revenue = calculateRevenue(msg.value, revenueMeta.revenueRate);\n\t\t\tauthorAddress.transfer(revenue);\n\t\t}\n\n\t\tsoldCount = safeAdd(soldCount, 1);\n\t\tbuyers[msg.sender] = true;\n\t\tPaymentEvent(msg.sender, msg.value);\n\t}\n\n\t// `_rate` value is represented in ppm (10000 ppm = 1%), 1-1000000\n\tfunction setRevenueRate(address _author, uint256 _rate) public \n\t\tnotThis(_author)\n\t\tvalidAddress(_author)\n\t\tgreaterThanZero(_rate)\n\t\tonlyOwner\n\t{\n\t\tassert(revenueRates[_author].isAuthor);\n\t\trequire(checkRevenueRate(_rate));\n\n\t\trevenueRates[_author].revenueRate = _rate;\n\t\tRevenueRateChangedEvent(_author, _rate);\n\t}\n\n\tfunction checkRevenueRate(uint256 _rate) public view returns(bool) {\n\t\trequire(_rate >= MIN_REVENUE_RATE && _rate <= MAX_REVENUE_RATE);\n\t\tuint256 summaryRate = getSummaryRate();\n\t\treturn safeAdd(summaryRate, _rate) <= MAX_REVENUE_RATE;\n\t}\n\n\tfunction getSummaryRate() private view returns(uint256) {\n\t\tuint256 rate = 0;\n\t\tfor (uint256 i = 0; i < authors.length; i++) {\n\t\t\tRevenue storage revenueMeta = revenueRates[authors[i]];\n\t\t\trate = safeAdd(rate, revenueMeta.revenueRate);\n\t\t}\n\t\treturn rate;\n\t}\n\n\tfunction changePrice(uint256 _price) public onlyOwner {\n\t\tuint256 oldPrice = price;\n\t\tprice = _price;\n\t\tPriceChangedEvent(oldPrice, price);\n\t}\n\n\tfunction calculateRevenue(uint256 _value, uint256 _rate) public pure returns(uint256 revenue) {\n\t\tif (_rate < TEN_PERCENT_IN_PPM || _rate >= TEN_PERCENT_IN_PPM && _rate <= MAX_REVENUE_RATE) {\n\t\t\trevenue = safeMul(_value, _rate) / MAX_REVENUE_RATE;\n\t\t} else {\n\t\t\trevenue = _value;\n\t\t}\n\t}\n\n\tfunction getAuthors() public view returns(address[]) {\n\t\treturn authors;\n\t}\n\n}",
  "sourcePath": "d:\\Projects\\blockchain\\open-book\\contracts\\AssetContract.sol",
  "compiler": {
    "name": "solc",
    "version": "0.4.19+commit.c4cbbb05.Emscripten.clang"
  },
  "schemaVersion": "2.0.0",
  "updatedAt": "2018-03-22T09:53:59.432Z"
}