{
  "contractName": "AssetContract",
  "abi": [
    {
      "constant": true,
      "inputs": [],
      "name": "soldCount",
      "outputs": [
        {
          "name": "",
          "type": "uint256"
        }
      ],
      "payable": false,
      "stateMutability": "view",
      "type": "function"
    },
    {
      "constant": true,
      "inputs": [
        {
          "name": "",
          "type": "uint256"
        }
      ],
      "name": "authors",
      "outputs": [
        {
          "name": "",
          "type": "address"
        }
      ],
      "payable": false,
      "stateMutability": "view",
      "type": "function"
    },
    {
      "constant": true,
      "inputs": [],
      "name": "assetId",
      "outputs": [
        {
          "name": "",
          "type": "string"
        }
      ],
      "payable": false,
      "stateMutability": "view",
      "type": "function"
    },
    {
      "constant": true,
      "inputs": [],
      "name": "owner",
      "outputs": [
        {
          "name": "",
          "type": "address"
        }
      ],
      "payable": false,
      "stateMutability": "view",
      "type": "function"
    },
    {
      "constant": true,
      "inputs": [
        {
          "name": "",
          "type": "address"
        }
      ],
      "name": "buyers",
      "outputs": [
        {
          "name": "",
          "type": "bool"
        }
      ],
      "payable": false,
      "stateMutability": "view",
      "type": "function"
    },
    {
      "constant": true,
      "inputs": [],
      "name": "price",
      "outputs": [
        {
          "name": "",
          "type": "uint256"
        }
      ],
      "payable": false,
      "stateMutability": "view",
      "type": "function"
    },
    {
      "constant": true,
      "inputs": [
        {
          "name": "_str",
          "type": "string"
        }
      ],
      "name": "nonEmpty",
      "outputs": [
        {
          "name": "",
          "type": "bool"
        }
      ],
      "payable": false,
      "stateMutability": "pure",
      "type": "function"
    },
    {
      "constant": true,
      "inputs": [
        {
          "name": "",
          "type": "address"
        }
      ],
      "name": "revenueRates",
      "outputs": [
        {
          "name": "revenueRate",
          "type": "uint256"
        },
        {
          "name": "isAuthor",
          "type": "bool"
        }
      ],
      "payable": false,
      "stateMutability": "view",
      "type": "function"
    },
    {
      "constant": false,
      "inputs": [
        {
          "name": "newOwner",
          "type": "address"
        }
      ],
      "name": "transferOwnership",
      "outputs": [],
      "payable": false,
      "stateMutability": "nonpayable",
      "type": "function"
    },
    {
      "inputs": [
        {
          "name": "_assetId",
          "type": "string"
        },
        {
          "name": "_price",
          "type": "uint256"
        },
        {
          "name": "_authors",
          "type": "address[]"
        },
        {
          "name": "_owner",
          "type": "address"
        }
      ],
      "payable": false,
      "stateMutability": "nonpayable",
      "type": "constructor"
    },
    {
      "payable": true,
      "stateMutability": "payable",
      "type": "fallback"
    },
    {
      "anonymous": false,
      "inputs": [
        {
          "indexed": true,
          "name": "_sender",
          "type": "address"
        },
        {
          "indexed": false,
          "name": "_value",
          "type": "uint256"
        }
      ],
      "name": "PaymentEvent",
      "type": "event"
    },
    {
      "anonymous": false,
      "inputs": [
        {
          "indexed": true,
          "name": "_author",
          "type": "address"
        },
        {
          "indexed": false,
          "name": "_rate",
          "type": "uint256"
        }
      ],
      "name": "RevenueRateChangedEvent",
      "type": "event"
    },
    {
      "anonymous": false,
      "inputs": [
        {
          "indexed": false,
          "name": "_oldPrice",
          "type": "uint256"
        },
        {
          "indexed": false,
          "name": "_newPrice",
          "type": "uint256"
        }
      ],
      "name": "PriceChangedEvent",
      "type": "event"
    },
    {
      "anonymous": false,
      "inputs": [
        {
          "indexed": true,
          "name": "previousOwner",
          "type": "address"
        },
        {
          "indexed": true,
          "name": "newOwner",
          "type": "address"
        }
      ],
      "name": "OwnershipTransferred",
      "type": "event"
    },
    {
      "constant": false,
      "inputs": [
        {
          "name": "_author",
          "type": "address"
        },
        {
          "name": "_rate",
          "type": "uint256"
        }
      ],
      "name": "setRevenueRate",
      "outputs": [],
      "payable": false,
      "stateMutability": "nonpayable",
      "type": "function"
    },
    {
      "constant": true,
      "inputs": [
        {
          "name": "_rate",
          "type": "uint256"
        }
      ],
      "name": "checkRevenueRate",
      "outputs": [
        {
          "name": "",
          "type": "bool"
        }
      ],
      "payable": false,
      "stateMutability": "view",
      "type": "function"
    },
    {
      "constant": false,
      "inputs": [
        {
          "name": "_price",
          "type": "uint256"
        }
      ],
      "name": "changePrice",
      "outputs": [],
      "payable": false,
      "stateMutability": "nonpayable",
      "type": "function"
    },
    {
      "constant": true,
      "inputs": [
        {
          "name": "_value",
          "type": "uint256"
        },
        {
          "name": "_rate",
          "type": "uint256"
        }
      ],
      "name": "calculateRevenue",
      "outputs": [
        {
          "name": "revenue",
          "type": "uint256"
        }
      ],
      "payable": false,
      "stateMutability": "pure",
      "type": "function"
    },
    {
      "constant": true,
      "inputs": [],
      "name": "getAuthors",
      "outputs": [
        {
          "name": "",
          "type": "address[]"
        }
      ],
      "payable": false,
      "stateMutability": "view",
      "type": "function"
    },
    {
      "constant": true,
      "inputs": [
        {
          "name": "_buyer",
          "type": "address"
        }
      ],
      "name": "verifyBuyer",
      "outputs": [
        {
          "name": "",
          "type": "bool"
        }
      ],
      "payable": false,
      "stateMutability": "view",
      "type": "function"
    }
  ],
  "bytecode": "0x606060405234156200001057600080fd5b604051620012c8380380620012c88339810160405280805182019190602001805190602001909190805182019190602001805190602001909190505060006200006d85620001d06401000000000262000b79176401000000009004565b15156200007957600080fd5b600083511115156200008a57600080fd5b816000806101000a81548173ffffffffffffffffffffffffffffffffffffffff021916908373ffffffffffffffffffffffffffffffffffffffff1602179055508460019080519060200190620000e2929190620001de565b508260049080519060200190620000fb92919062000265565b50836002819055506000600381905550600090505b8251811015620001c557604080519081016040528060008152602001600115158152506005600085848151811015156200014657fe5b9060200190602002015173ffffffffffffffffffffffffffffffffffffffff1673ffffffffffffffffffffffffffffffffffffffff1681526020019081526020016000206000820151816000015560208201518160010160006101000a81548160ff021916908315150217905550905050808060010191505062000110565b505050505062000362565b600080825114159050919050565b828054600181600116156101000203166002900490600052602060002090601f016020900481019282601f106200022157805160ff191683800117855562000252565b8280016001018555821562000252579182015b828111156200025157825182559160200191906001019062000234565b5b509050620002619190620002f4565b5090565b828054828255906000526020600020908101928215620002e1579160200282015b82811115620002e05782518260006101000a81548173ffffffffffffffffffffffffffffffffffffffff021916908373ffffffffffffffffffffffffffffffffffffffff1602179055509160200191906001019062000286565b5b509050620002f091906200031c565b5090565b6200031991905b8082111562000315576000816000905550600101620002fb565b5090565b90565b6200035f91905b808211156200035b57600081816101000a81549073ffffffffffffffffffffffffffffffffffffffff02191690555060010162000323565b5090565b90565b610f5680620003726000396000f3006060604052600436106100db576000357c0100000000000000000000000000000000000000000000000000000000900463ffffffff16806339f9c82c146102b65780633db804da146102df57806344de240a146103425780636814800b146103d057806375f96cf5146104215780637fc622f4146104615780638da5cb5b146104cb57806397a993aa14610520578063a035b1fe14610571578063a2b40d191461059a578063aba20eae146105bd578063afabd49d146105f8578063bd1833231461066d578063f2fde38b146106c5578063f3e92f60146106fe575b60008060008060025434101515156100f257600080fd5b620f42406100fe610740565b14151561010a57600080fd5b600093505b6004805490508410156101f75760048481548110151561012b57fe5b906000526020600020900160009054906101000a900473ffffffffffffffffffffffffffffffffffffffff169250600560008473ffffffffffffffffffffffffffffffffffffffff1673ffffffffffffffffffffffffffffffffffffffff16815260200190815260200160002091506101a83483600001546107fd565b90508273ffffffffffffffffffffffffffffffffffffffff166108fc829081150290604051600060405180830381858888f1935050505015156101ea57600080fd5b838060010194505061010f565b6102046003546001610850565b6003819055506001600660003373ffffffffffffffffffffffffffffffffffffffff1673ffffffffffffffffffffffffffffffffffffffff16815260200190815260200160002060006101000a81548160ff0219169083151502179055503373ffffffffffffffffffffffffffffffffffffffff167ff7130aabb9c9cca18a579bcff1de84054de1ca07680f60eae1510bae7788f819346040518082815260200191505060405180910390a250505050005b34156102c157600080fd5b6102c961086e565b6040518082815260200191505060405180910390f35b34156102ea57600080fd5b6103006004808035906020019091905050610874565b604051808273ffffffffffffffffffffffffffffffffffffffff1673ffffffffffffffffffffffffffffffffffffffff16815260200191505060405180910390f35b341561034d57600080fd5b6103556108b3565b6040518080602001828103825283818151815260200191508051906020019080838360005b8381101561039557808201518184015260208101905061037a565b50505050905090810190601f1680156103c25780820380516001836020036101000a031916815260200191505b509250505060405180910390f35b34156103db57600080fd5b610407600480803573ffffffffffffffffffffffffffffffffffffffff16906020019091905050610951565b604051808215151515815260200191505060405180910390f35b341561042c57600080fd5b61044b60048080359060200190919080359060200190919050506107fd565b6040518082815260200191505060405180910390f35b341561046c57600080fd5b6104746109a7565b6040518080602001828103825283818151815260200191508051906020019060200280838360005b838110156104b757808201518184015260208101905061049c565b505050509050019250505060405180910390f35b34156104d657600080fd5b6104de610a3b565b604051808273ffffffffffffffffffffffffffffffffffffffff1673ffffffffffffffffffffffffffffffffffffffff16815260200191505060405180910390f35b341561052b57600080fd5b610557600480803573ffffffffffffffffffffffffffffffffffffffff16906020019091905050610a60565b604051808215151515815260200191505060405180910390f35b341561057c57600080fd5b610584610a80565b6040518082815260200191505060405180910390f35b34156105a557600080fd5b6105bb6004808035906020019091905050610a86565b005b34156105c857600080fd5b6105de6004808035906020019091905050610b34565b604051808215151515815260200191505060405180910390f35b341561060357600080fd5b610653600480803590602001908201803590602001908080601f01602080910402602001604051908101604052809392919081815260200183838082843782019150505050505091905050610b79565b604051808215151515815260200191505060405180910390f35b341561067857600080fd5b6106a4600480803573ffffffffffffffffffffffffffffffffffffffff16906020019091905050610b87565b60405180838152602001821515151581526020019250505060405180910390f35b34156106d057600080fd5b6106fc600480803573ffffffffffffffffffffffffffffffffffffffff16906020019091905050610bb8565b005b341561070957600080fd5b61073e600480803573ffffffffffffffffffffffffffffffffffffffff16906020019091908035906020019091905050610d0d565b005b60008060008060009250600091505b6004805490508210156107f4576005600060048481548110151561076f57fe5b906000526020600020900160009054906101000a900473ffffffffffffffffffffffffffffffffffffffff1673ffffffffffffffffffffffffffffffffffffffff1673ffffffffffffffffffffffffffffffffffffffff16815260200190815260200160002090506107e5838260000154610850565b9250818060010192505061074f565b82935050505090565b6000620186a08210806108225750620186a082101580156108215750620f42408211155b5b1561084657620f42406108358484610ee3565b81151561083e57fe5b04905061084a565b8290505b92915050565b600080828401905083811015151561086457fe5b8091505092915050565b60035481565b60048181548110151561088357fe5b90600052602060002090016000915054906101000a900473ffffffffffffffffffffffffffffffffffffffff1681565b60018054600181600116156101000203166002900480601f0160208091040260200160405190810160405280929190818152602001828054600181600116156101000203166002900480156109495780601f1061091e57610100808354040283529160200191610949565b820191906000526020600020905b81548152906001019060200180831161092c57829003601f168201915b505050505081565b6000600660008373ffffffffffffffffffffffffffffffffffffffff1673ffffffffffffffffffffffffffffffffffffffff16815260200190815260200160002060009054906101000a900460ff169050919050565b6109af610f16565b6004805480602002602001604051908101604052809291908181526020018280548015610a3157602002820191906000526020600020905b8160009054906101000a900473ffffffffffffffffffffffffffffffffffffffff1673ffffffffffffffffffffffffffffffffffffffff16815260200190600101908083116109e7575b5050505050905090565b6000809054906101000a900473ffffffffffffffffffffffffffffffffffffffff1681565b60066020528060005260406000206000915054906101000a900460ff1681565b60025481565b60008060009054906101000a900473ffffffffffffffffffffffffffffffffffffffff1673ffffffffffffffffffffffffffffffffffffffff163373ffffffffffffffffffffffffffffffffffffffff16141515610ae357600080fd5b6002549050816002819055507f92ceb96513e6ff880013131bf68a11fa2ada07941a6b36db443ccb29b2675c6681600254604051808381526020018281526020019250505060405180910390a15050565b6000806127108310158015610b4c5750620f42408311155b1515610b5757600080fd5b610b5f610740565b9050620f4240610b6f8285610850565b1115915050919050565b600080825114159050919050565b60056020528060005260406000206000915090508060000154908060010160009054906101000a900460ff16905082565b6000809054906101000a900473ffffffffffffffffffffffffffffffffffffffff1673ffffffffffffffffffffffffffffffffffffffff163373ffffffffffffffffffffffffffffffffffffffff16141515610c1357600080fd5b600073ffffffffffffffffffffffffffffffffffffffff168173ffffffffffffffffffffffffffffffffffffffff1614151515610c4f57600080fd5b8073ffffffffffffffffffffffffffffffffffffffff166000809054906101000a900473ffffffffffffffffffffffffffffffffffffffff1673ffffffffffffffffffffffffffffffffffffffff167f8be0079c531659141344cd1fd0a4f28419497f9722a3daafe3b4186f6b6457e060405160405180910390a3806000806101000a81548173ffffffffffffffffffffffffffffffffffffffff021916908373ffffffffffffffffffffffffffffffffffffffff16021790555050565b813073ffffffffffffffffffffffffffffffffffffffff168173ffffffffffffffffffffffffffffffffffffffff1614151515610d4957600080fd5b8260008173ffffffffffffffffffffffffffffffffffffffff1614151515610d7057600080fd5b82600081111515610d8057600080fd5b6000809054906101000a900473ffffffffffffffffffffffffffffffffffffffff1673ffffffffffffffffffffffffffffffffffffffff163373ffffffffffffffffffffffffffffffffffffffff16141515610ddb57600080fd5b600560008673ffffffffffffffffffffffffffffffffffffffff1673ffffffffffffffffffffffffffffffffffffffff16815260200190815260200160002060010160009054906101000a900460ff161515610e3357fe5b610e3c84610b34565b1515610e4757600080fd5b83600560008773ffffffffffffffffffffffffffffffffffffffff1673ffffffffffffffffffffffffffffffffffffffff168152602001908152602001600020600001819055508473ffffffffffffffffffffffffffffffffffffffff167f9c0dadb72508ad4969779d5c10da273b18c6f3a16f71c5744aaf860c56a925d9856040518082815260200191505060405180910390a25050505050565b60008082840290506000841480610f045750828482811515610f0157fe5b04145b1515610f0c57fe5b8091505092915050565b6020604051908101604052806000815250905600a165627a7a72305820a473035b031b54b63f3832a8735c84b6b68bd95467258bd8724a9764c2240d3b0029",
  "source": "pragma solidity ^0.4.11;\r\n\r\nimport \"./util/Util.sol\";\r\nimport \"./util/Ownable.sol\";\r\n\r\ncontract AssetContract is Util, Ownable {\r\n\r\n\tuint256 private constant MIN_REVENUE_RATE   = 10000;   // 1%\r\n\tuint256 private constant TEN_PERCENT_IN_PPM = 100000;  // 10%\r\n\tuint256 private constant MAX_REVENUE_RATE   = 1000000; // 100%\r\n\r\n\tstring public assetId;\t\r\n\tuint256 public price;\r\n\tuint256 public soldCount;\r\n\taddress[] public authors;\r\n\tmapping(address => Revenue) public revenueRates;\r\n\tmapping(address => bool) public buyers;\r\n\r\n\tevent PaymentEvent(address indexed _sender, uint256 _value);\r\n\tevent RevenueRateChangedEvent(address indexed _author, uint256 _rate);\r\n\tevent PriceChangedEvent(uint256 _oldPrice, uint256 _newPrice);\r\n\r\n\tstruct Revenue {\r\n\t\tuint256 revenueRate;\r\n\t\tbool isAuthor;\r\n\t}\r\n\r\n\tfunction AssetContract(string _assetId, uint256 _price, address[] _authors, address _owner) public {\r\n\t\trequire(nonEmpty(_assetId));\r\n\t\trequire(_authors.length > 0);\r\n\t\r\n\t\towner = _owner;\r\n\t\tassetId = _assetId;\r\n\t\tauthors = _authors;\r\n\t\tprice = _price;\r\n\t\tsoldCount = 0;\r\n\r\n\t\tfor (uint256 i = 0; i < _authors.length; i++) {\r\n\t\t\trevenueRates[_authors[i]] = Revenue(0, true);\r\n\t\t}\r\n\t}\r\n\r\n\tfunction () public payable {\r\n\t\trequire(msg.value >= price);\r\n\t\trequire(getSummaryRate() == MAX_REVENUE_RATE);\r\n\r\n\t\tfor (uint256 i = 0; i < authors.length; i++) {\r\n\t\t\taddress authorAddress = authors[i];\r\n\t\t\tRevenue storage revenueMeta = revenueRates[authorAddress];\r\n\t\t\tuint256 revenue = calculateRevenue(msg.value, revenueMeta.revenueRate);\r\n\t\t\tauthorAddress.transfer(revenue);\r\n\t\t}\r\n\r\n\t\tsoldCount = safeAdd(soldCount, 1);\r\n\t\tbuyers[msg.sender] = true;\r\n\t\tPaymentEvent(msg.sender, msg.value);\r\n\t}\r\n\r\n\t// `_rate` value is represented in ppm (10000 ppm = 1%), 1-1000000\r\n\tfunction setRevenueRate(address _author, uint256 _rate) public \r\n\t\tnotThis(_author)\r\n\t\tvalidAddress(_author)\r\n\t\tgreaterThanZero(_rate)\r\n\t\tonlyOwner\r\n\t{\r\n\t\tassert(revenueRates[_author].isAuthor);\r\n\t\trequire(checkRevenueRate(_rate));\r\n\r\n\t\trevenueRates[_author].revenueRate = _rate;\r\n\t\tRevenueRateChangedEvent(_author, _rate);\r\n\t}\r\n\r\n\tfunction checkRevenueRate(uint256 _rate) public view returns(bool) {\r\n\t\trequire(_rate >= MIN_REVENUE_RATE && _rate <= MAX_REVENUE_RATE);\r\n\t\tuint256 summaryRate = getSummaryRate();\r\n\t\treturn safeAdd(summaryRate, _rate) <= MAX_REVENUE_RATE;\r\n\t}\r\n\r\n\tfunction getSummaryRate() private view returns(uint256) {\r\n\t\tuint256 rate = 0;\r\n\t\tfor (uint256 i = 0; i < authors.length; i++) {\r\n\t\t\tRevenue storage revenueMeta = revenueRates[authors[i]];\r\n\t\t\trate = safeAdd(rate, revenueMeta.revenueRate);\r\n\t\t}\r\n\t\treturn rate;\r\n\t}\r\n\r\n\tfunction changePrice(uint256 _price) public onlyOwner {\r\n\t\tuint256 oldPrice = price;\r\n\t\tprice = _price;\r\n\t\tPriceChangedEvent(oldPrice, price);\r\n\t}\r\n\r\n\tfunction calculateRevenue(uint256 _value, uint256 _rate) public pure returns(uint256 revenue) {\r\n\t\tif (_rate < TEN_PERCENT_IN_PPM || _rate >= TEN_PERCENT_IN_PPM && _rate <= MAX_REVENUE_RATE) {\r\n\t\t\trevenue = safeMul(_value, _rate) / MAX_REVENUE_RATE;\r\n\t\t} else {\r\n\t\t\trevenue = _value;\r\n\t\t}\r\n\t}\r\n\r\n\tfunction getAuthors() public view returns(address[]) {\r\n\t\treturn authors;\r\n\t}\r\n\r\n\tfunction verifyBuyer(address _buyer) public view returns(bool) {\r\n\t\treturn buyers[_buyer];\r\n\t}\r\n\r\n}",
  "sourcePath": "D:\\Projects\\blockchain\\open-book\\contracts\\AssetContract.sol",
  "compiler": {
    "name": "solc",
    "version": "0.4.19+commit.c4cbbb05.Emscripten.clang"
  },
  "schemaVersion": "2.0.0",
  "updatedAt": "2018-04-10T11:38:22.922Z"
}