{
  "contractName": "BookContract",
  "abi": [
    {
      "constant": true,
      "inputs": [],
      "name": "soldCount",
      "outputs": [
        {
          "name": "",
          "type": "uint256"
        }
      ],
      "payable": false,
      "stateMutability": "view",
      "type": "function"
    },
    {
      "constant": true,
      "inputs": [
        {
          "name": "",
          "type": "uint256"
        }
      ],
      "name": "authors",
      "outputs": [
        {
          "name": "",
          "type": "address"
        }
      ],
      "payable": false,
      "stateMutability": "view",
      "type": "function"
    },
    {
      "constant": true,
      "inputs": [
        {
          "name": "",
          "type": "address"
        }
      ],
      "name": "buyers",
      "outputs": [
        {
          "name": "",
          "type": "bool"
        }
      ],
      "payable": false,
      "stateMutability": "view",
      "type": "function"
    },
    {
      "constant": true,
      "inputs": [],
      "name": "price",
      "outputs": [
        {
          "name": "",
          "type": "uint256"
        }
      ],
      "payable": false,
      "stateMutability": "view",
      "type": "function"
    },
    {
      "constant": true,
      "inputs": [],
      "name": "id",
      "outputs": [
        {
          "name": "",
          "type": "string"
        }
      ],
      "payable": false,
      "stateMutability": "view",
      "type": "function"
    },
    {
      "constant": true,
      "inputs": [
        {
          "name": "",
          "type": "address"
        }
      ],
      "name": "revenueRates",
      "outputs": [
        {
          "name": "",
          "type": "uint256"
        }
      ],
      "payable": false,
      "stateMutability": "view",
      "type": "function"
    },
    {
      "inputs": [
        {
          "name": "_id",
          "type": "string"
        },
        {
          "name": "_price",
          "type": "uint256"
        },
        {
          "name": "_authors",
          "type": "address[]"
        }
      ],
      "payable": false,
      "stateMutability": "nonpayable",
      "type": "constructor"
    },
    {
      "payable": true,
      "stateMutability": "payable",
      "type": "fallback"
    },
    {
      "anonymous": false,
      "inputs": [
        {
          "indexed": true,
          "name": "_sender",
          "type": "address"
        },
        {
          "indexed": false,
          "name": "_value",
          "type": "uint256"
        }
      ],
      "name": "PaymentEvent",
      "type": "event"
    },
    {
      "anonymous": false,
      "inputs": [
        {
          "indexed": true,
          "name": "_author",
          "type": "address"
        },
        {
          "indexed": false,
          "name": "_rate",
          "type": "uint256"
        }
      ],
      "name": "RevenueChangedEvent",
      "type": "event"
    },
    {
      "constant": false,
      "inputs": [
        {
          "name": "_author",
          "type": "address"
        },
        {
          "name": "_rate",
          "type": "uint256"
        }
      ],
      "name": "setRevenueRate",
      "outputs": [],
      "payable": false,
      "stateMutability": "nonpayable",
      "type": "function"
    }
  ],
  "bytecode": "0x6060604052341561000f57600080fd5b604051610a62380380610a62833981016040528080518201919060200180519060200190919080518201919050508260009080519060200190610053929190610082565b50806003908051906020019061006a929190610102565b508160018190555060006002819055505050506101f4565b828054600181600116156101000203166002900490600052602060002090601f016020900481019282601f106100c357805160ff19168380011785556100f1565b828001600101855582156100f1579182015b828111156100f05782518255916020019190600101906100d5565b5b5090506100fe919061018c565b5090565b82805482825590600052602060002090810192821561017b579160200282015b8281111561017a5782518260006101000a81548173ffffffffffffffffffffffffffffffffffffffff021916908373ffffffffffffffffffffffffffffffffffffffff16021790555091602001919060010190610122565b5b50905061018891906101b1565b5090565b6101ae91905b808211156101aa576000816000905550600101610192565b5090565b90565b6101f191905b808211156101ed57600081816101000a81549073ffffffffffffffffffffffffffffffffffffffff0219169055506001016101b7565b5090565b90565b61085f806102036000396000f300606060405260043610610083576000357c0100000000000000000000000000000000000000000000000000000000900463ffffffff16806339f9c82c146102445780633db804da1461026d57806397a993aa146102d0578063a035b1fe14610321578063af640d0f1461034a578063bd183323146103d8578063f3e92f6014610425575b6000806000600154341015151561009957600080fd5b600092505b6003805490508360ff1610156101865760038360ff168154811015156100c057fe5b906000526020600020900160009054906101000a900473ffffffffffffffffffffffffffffffffffffffff16915061013734600460008573ffffffffffffffffffffffffffffffffffffffff1673ffffffffffffffffffffffffffffffffffffffff16815260200190815260200160002054610467565b90508173ffffffffffffffffffffffffffffffffffffffff166108fc829081150290604051600060405180830381858888f19350505050151561017957600080fd5b828060010193505061009e565b61019360025460016104ba565b6002819055506001600560003373ffffffffffffffffffffffffffffffffffffffff1673ffffffffffffffffffffffffffffffffffffffff16815260200190815260200160002060006101000a81548160ff0219169083151502179055503373ffffffffffffffffffffffffffffffffffffffff167ff7130aabb9c9cca18a579bcff1de84054de1ca07680f60eae1510bae7788f819346040518082815260200191505060405180910390a2505050005b341561024f57600080fd5b6102576104d8565b6040518082815260200191505060405180910390f35b341561027857600080fd5b61028e60048080359060200190919050506104de565b604051808273ffffffffffffffffffffffffffffffffffffffff1673ffffffffffffffffffffffffffffffffffffffff16815260200191505060405180910390f35b34156102db57600080fd5b610307600480803573ffffffffffffffffffffffffffffffffffffffff1690602001909190505061051d565b604051808215151515815260200191505060405180910390f35b341561032c57600080fd5b61033461053d565b6040518082815260200191505060405180910390f35b341561035557600080fd5b61035d610543565b6040518080602001828103825283818151815260200191508051906020019080838360005b8381101561039d578082015181840152602081019050610382565b50505050905090810190601f1680156103ca5780820380516001836020036101000a031916815260200191505b509250505060405180910390f35b34156103e357600080fd5b61040f600480803573ffffffffffffffffffffffffffffffffffffffff169060200190919050506105e1565b6040518082815260200191505060405180910390f35b341561043057600080fd5b610465600480803573ffffffffffffffffffffffffffffffffffffffff169060200190919080359060200190919050506105f9565b005b6000620186a082108061048c5750620186a0821015801561048b5750620f42408211155b5b156104b057620f424061049f8484610719565b8115156104a857fe5b0490506104b4565b8290505b92915050565b60008082840190508381101515156104ce57fe5b8091505092915050565b60025481565b6003818154811015156104ed57fe5b90600052602060002090016000915054906101000a900473ffffffffffffffffffffffffffffffffffffffff1681565b60056020528060005260406000206000915054906101000a900460ff1681565b60015481565b60008054600181600116156101000203166002900480601f0160208091040260200160405190810160405280929190818152602001828054600181600116156101000203166002900480156105d95780601f106105ae576101008083540402835291602001916105d9565b820191906000526020600020905b8154815290600101906020018083116105bc57829003601f168201915b505050505081565b60046020528060005260406000206000915090505481565b813073ffffffffffffffffffffffffffffffffffffffff168173ffffffffffffffffffffffffffffffffffffffff161415151561063557600080fd5b8260008173ffffffffffffffffffffffffffffffffffffffff161415151561065c57600080fd5b8260008111151561066c57600080fd5b6106758461074c565b151561068057600080fd5b83600460008773ffffffffffffffffffffffffffffffffffffffff1673ffffffffffffffffffffffffffffffffffffffff168152602001908152602001600020819055508473ffffffffffffffffffffffffffffffffffffffff167f7af57dc6bb658b3e954e4124482110ef47551547f379b18d71244c1aba62a561856040518082815260200191505060405180910390a25050505050565b6000808284029050600084148061073a575082848281151561073757fe5b04145b151561074257fe5b8091505092915050565b600080600061271084101580156107665750620f42408411155b151561077157600080fd5b600090505b6003805490508160ff16101561081b5761080c826004600060038560ff168154811015156107a057fe5b906000526020600020900160009054906101000a900473ffffffffffffffffffffffffffffffffffffffff1673ffffffffffffffffffffffffffffffffffffffff1673ffffffffffffffffffffffffffffffffffffffff168152602001908152602001600020546104ba565b91508080600101915050610776565b620f424061082983866104ba565b11925050509190505600a165627a7a72305820202f3fe46033fa6a6ec0de10a9c868ae5a726f9732938a580f2a436af74a98ae0029",
  "source": "pragma solidity ^0.4.11;\n\nimport \"./util/Util.sol\";\n\ncontract BookContract is Util {\n\n\tstring public id;\t\n\tuint256 public price;\n\tuint256 public soldCount;\n\taddress[] public authors;\n\tmapping(address => uint256) public revenueRates;\n\tmapping(address => bool) public buyers;\n\n\tevent PaymentEvent(address indexed _sender, uint256 _value);\n\tevent RevenueChangedEvent(address indexed _author, uint256 _rate);\n\n\tfunction BookContract(string _id, uint256 _price, address[] _authors) public {\n\t\tid = _id;\n\t\tauthors = _authors;\n\t\tprice = _price;\n\t\tsoldCount = 0;\n\t}\n\n\tfunction () public payable {\n\t\trequire(msg.value >= price);\n\n\t\tfor (uint8 i = 0; i < authors.length; i++) {\n\t\t\taddress author = authors[i];\n\t\t\tuint256 revenue = calculateRevenue(msg.value, revenueRates[author]);\n\t\t\tauthor.transfer(revenue);\n\t\t}\n\n\t\tsoldCount = safeAdd(soldCount, 1);\n\t\tbuyers[msg.sender] = true;\n\t\tPaymentEvent(msg.sender, msg.value);\n\t}\n\n\t// `_rate` value represented in ppm (10000 ppm = 1%), 1-1000000\n\tfunction setRevenueRate(address _author, uint256 _rate) public \n\t\tnotThis(_author)\n\t\tvalidAddress(_author)\n\t\tgreaterThanZero(_rate)\n\t{\n\t\trequire(checkRevenueRate(_rate));\n\n\t\trevenueRates[_author] = _rate;\n\t\tRevenueChangedEvent(_author, _rate);\n\t}\n\n\tfunction checkRevenueRate(uint256 _rate) private view returns(bool) {\n\t\trequire(_rate >= 10000 && _rate <= 1000000);\n\t\tuint256 currentRate;\n\t\tfor (uint8 i = 0; i < authors.length; i++) {\n\t\t\tcurrentRate = safeAdd(currentRate, revenueRates[authors[i]]);\n\t\t}\n\t\treturn safeAdd(currentRate, _rate) > 1000000;\n\t}\n\n\tfunction calculateRevenue(uint256 _value, uint256 _rate) private pure returns(uint256 revenue) {\n\t\tif (_rate < 100000 || _rate >= 100000 && _rate <= 1000000) {\n\t\t\trevenue = safeMul(_value, _rate) / 1000000;\n\t\t} else {\n\t\t\trevenue = _value;\n\t\t}\n\t}\n\n}",
  "sourcePath": "/mnt/d/Workspace/vscode/open-book/contracts/BookContract.sol",
  "compiler": {
    "name": "solc",
    "version": "0.4.19+commit.c4cbbb05.Emscripten.clang"
  },
  "schemaVersion": "2.0.0",
  "updatedAt": "2018-03-16T14:11:46.455Z"
}