{
  "contractName": "Util",
  "abi": [
    {
      "constant": true,
      "inputs": [
        {
          "name": "_str",
          "type": "string"
        }
      ],
      "name": "nonEmpty",
      "outputs": [
        {
          "name": "",
          "type": "bool"
        }
      ],
      "payable": false,
      "stateMutability": "pure",
      "type": "function"
    }
  ],
  "bytecode": "0x6060604052341561000f57600080fd5b60f08061001d6000396000f300606060405260043610603f576000357c0100000000000000000000000000000000000000000000000000000000900463ffffffff168063afabd49d146044575b600080fd5b3415604e57600080fd5b609c600480803590602001908201803590602001908080601f0160208091040260200160405190810160405280939291908181526020018383808284378201915050505050509190505060b6565b604051808215151515815260200191505060405180910390f35b6000808251141590509190505600a165627a7a7230582001270f0c08a1b42696bf51dc9f34269629d1dbb372d06f36b01d660fac9a08cf0029",
  "source": "pragma solidity ^0.4.11;\r\n\r\ncontract Util {\r\n\r\n\tfunction safeAdd(uint256 _x, uint256 _y) internal pure returns (uint256) {\r\n\t\tuint256 z = _x + _y;\r\n\t\tassert(z >= _x);\r\n\t\treturn z;\r\n\t}\r\n\r\n\tfunction safeSub(uint256 _x, uint256 _y) internal pure returns (uint256) {\r\n\t\tassert(_x >= _y);\r\n\t\treturn _x - _y;\r\n\t}\r\n\r\n\tfunction safeMul(uint256 _x, uint256 _y) internal pure returns (uint256) {\r\n\t\tuint256 z = _x * _y;\r\n\t\tassert(_x == 0 || z / _x == _y);\r\n\t\treturn z;\r\n\t}\r\n\r\n\tfunction nonEmpty(string _str) public pure returns(bool) {\r\n\t\treturn bytes(_str).length != 0;\r\n\t}\r\n\r\n\tmodifier greaterThanZero(uint256 _amount) {\r\n\t\trequire(_amount > 0);\r\n\t\t_;\r\n\t}\r\n\r\n\tmodifier validAddress(address _address) {\r\n\t\trequire(_address != 0x0);\r\n\t\t_;\r\n\t}\r\n\r\n\tmodifier notThis(address _address) {\r\n\t\trequire(_address != address(this));\r\n\t\t_;\r\n\t}\r\n\r\n}",
  "sourcePath": "D:\\Projects\\blockchain\\open-book\\contracts\\util\\Util.sol",
  "compiler": {
    "name": "solc",
    "version": "0.4.19+commit.c4cbbb05.Emscripten.clang"
  },
  "schemaVersion": "2.0.0",
  "updatedAt": "2018-04-10T11:40:27.919Z"
}